:020000040800F2
:10000000F007002001030008AD3600087535000830
:10001000A9360008D11F0008713800080000000050
:10002000000000000000000000000000B5360008DD
:10003000D51F000800000000B1360008B9360008DE
:100040001B0300081B0300081B0300081B03000818
:100050001B0300081B0300081B0300081B03000808
:100060001B0300081B0300081B0300081B030008F8
:100070001B0300081B0300081B0300081B030008E8
:100080001B0300081B0300081B0300081B030008D8
:100090001B0300081B0300081B0300081B030008C8
:1000A0001B0300081B0300081B0300081B030008B8
:1000B0001B0300081B0300081B0300081B030008A8
:1000C0001B0300081B0300081B0300081B03000898
:1000D0001B0300081B0300081B0300081B03000888
:1000E0001B0300081B0300081B0300081B03000878
:1000F0001B0300081B0300081B0300081B03000868
:100100001B0300081B0300081B0300081B03000857
:100110001B0300081B0300081B0300081B03000847
:100120001B0300081B0300081B0300081B03000837
:100130001B0300081B0300081B0300081B03000827
:100140001B0300081B0300081B0300081B03000817
:100150001B0300081B0300081B0300081B03000807
:100160001B0300081B0300081B0300081B030008F7
:100170001B0300081B0300081B030008000000000D
:100180001B0300081B03000800F002F800F0A8F8A9
:1001900014A696E8000CB244B344DA4501D100F04D
:1001A0009FF8BAE80F000FA696E83000A5EB04050B
:1001B00004EB0607AAEB0704A7F101074FEA1515A0
:1001C0004FEA3414A4F10104AC4201D300F088F8E2
:1001D00013F0010F18BFFB1A43F0010300F001F800
:1001E000DBE71847E444000004450000103A24BF50
:1001F00078C878C1FAD8520724BF30C830C144BF8C
:1002000004680C6070470000704700000023002461
:1002100000250026103A28BF78C1FBD8520728BF16
:1002200030C148BF0B6070476E2900F0DB81702938
:1002300000F01D83662903F06887652903F0658750
:10024000672903F06287612903F0618703681B0A4D
:1002500028BF41F08001692900F08881642900F0FD
:100260008581752900F082816F2900F0AB827829A1
:1002700000F0E982E92900F04582E42900F0428299
:10028000F52900F03F82EF2900F0A882F82900F05C
:10029000E8820368DB0928BF41F08001632900F090
:1002A000E987732900F0EE87E32900F0F987F32945
:1002B00000F0FE87002070471FB503F019FF01F022
:1002C0004DF804000020002103F0FCFE401C60609B
:1002D0000020002103F0E0FEE0601FBD10B510BD5E
:1002E00001F00EF81146FFF7E7FF03F0C3FA01F043
:1002F000EBF803B4FFF7F2FF03BC01F033F90000A1
:100300000948804709480047FEE7FEE7FEE7FEE7A9
:10031000FEE7FEE7FEE7FEE7FEE7FEE704480549E5
:10032000054A064B704700006D3700088901000838
:10033000F0010020F0070020F0030020F00300206F
:1003400053EA020C00F069802DE9F04B4FF00006F3
:10035000002B1FBFB3FA83F503FA05F424FA05F660
:100360005E4012BF1643B2FA82F502FA05F4C5F1F7
:1003700020051EBF22FA05FC44EA0C04203556EA8B
:10038000044C4FEA144418BF641C4FF000084FF0AF
:100390000009904271EB030C39D3002919BFB1FA5F
:1003A00081F701FA07F6B0FA80F700FA07F6C7F10D
:1003B00020071EBF20FA07FC46EA0C062037B6FBD2
:1003C000F4FCA7EB0507103F07F01F0BCBF120064D
:1003D0002CFA06F60CFA0BFB44BFB3460026202F7E
:1003E000A4BF5E464FF0000B5BEA060C08BF4FF05F
:1003F000010B19EB0B0948EB0608ABFB027C06FB73
:1004000002CC0BFB03CCC01B71EB0C01C1E70B460C
:10041000024641464846BDE8F08B13B5084318BF75
:100420004FF0FF300146AFF30080BDE81C4070473D
:100430001CB50C46064B7B4469460090204600F0F4
:10044000EAF804460020694600F0F8F820461CBD92
:10045000030200004FF0000200B513469446964692
:10046000203922BFA0E80C50A0E80C50B1F12001C7
:10047000BFF4F7AF090728BFA0E80C5048BF0CC075
:100480005DF804EB890028BF40F8042B08BF7047D3
:1004900048BF20F8022B11F0804F18BF00F8012B45
:1004A000704770477047704770B5044685690068AB
:1004B000C10601D5302600E02026C00707D070BD58
:1004C000D4E9012130469047206A401C20626D1E0D
:1004D000F6D570BD70B5044685690078C00707D1B0
:1004E00070BDD4E9012120209047206A401C206281
:1004F0006D1EF6D570BD09684A0501D540B270473A
:10050000C905FCD500B2704709684A0501D5C0B2DB
:100510007047C905FCD580B2704770B50C460546DA
:10052000012A05D02878800600D5EA69002302E078
:10053000012305E05B1C934202D2E05C0028F9D164
:10054000A869E618C01AA861286A184428622846D3
:10055000FFF7AAFF04E0D5E9012114F8010B904749
:10056000B442F8D32846FFF7B5FF70BD2DE9F0413E
:100570000646002410687529314616A510D0FFF7ED
:10058000BAFF002802DA404213A507E031688A0763
:1005900001D512A502E0490704D511A5012401E007
:1005A000FFF7B2FF00210A2206F1240709E0B0FBA1
:1005B000F2FCB0FBF2F302FB1C003030785418461A
:1005C000491C0028F3D123462A463046BDE8F041B5
:1005D00000F061BA000000002D0000002B000000B8
:1005E0002000000011680268006A530501D50870F8
:1005F0000AE0D30501D5088006E0130603D5C2172B
:10060000C1E9000200E008600120704701694A1C4E
:1006100002610878704700B58FB0CDE90131002143
:10062000059105497944CDE903101146684600F06B
:1006300029F90FB000BD0000E5FFFFFF0A6802F8CE
:10064000010B0A60704700002DE9FF5F15468A46DE
:100650000446DFF8AC80F8440027D8E900103E4695
:10066000CDE9001010E03AF816106A4602A800F032
:1006700023FE411C07D02178890603D5E269391889
:1006800091420DD80744761C2078800602D5E06997
:10069000B84205DDAE42E6DB3AF816000028E2D1AA
:1006A000A069C01BA0612046FFF7FEFED8E900103C
:1006B000CDE90010002017E03AF818106A4602A8A9
:1006C00000F0FAFDB0F1FF3F81460BD000250DF19F
:1006D000080B05E0D4E901211BF8050090476D1CCB
:1006E0004D45F7D308F10100B0428046E4DB206AB3
:1006F000384420622046FFF7EDFEBDE8FF9F000072
:10070000BA3A00002DE9F0418046D21D22F00702DE
:100710000025D2E90002F52915A614D0011E72F1B8
:10072000000106DA0023D0EB030063EB020211A6FE
:1007300008E0D8F800108B0701D50FA602E04907A2
:1007400001D50EA601251146002408F1240704E076
:1007500000F05CF930323A55641C50EA0102F7D1DE
:100760002B46324621464046BDE8F04100F093B9A1
:10077000000000002D0000002B0000002000000001
:1007800030B4002100F1240408E002F00705D2088B
:10079000303542EA4372DB086554491C52EA0305CE
:1007A000F3D10468002310A2250708D504F0200423
:1007B0000C4304D0C46901230CA2641EC46130BC84
:1007C00000F069B910B5044621461068FFF79CFE99
:1007D00002462046BDE810400023D1E7D21D22F09A
:1007E0000701D1E90023CBE7000000003000000042
:1007F000F0B40D460188090502D5214C7C4402E085
:100800001F4C7C440E34002100F1240608E002F065
:100810000F071209E75D42EA03721B097754491C6E
:1008200052EA0307F3D102780023120704D5702D92
:1008300006D009B1022311342246F0BC00F02BB9D6
:1008400001231034F8E770B504460D4621461068C0
:10085000FFF75AFE024629462046BDE870400023B5
:10086000C6E7D21D22F00703D3E90023C0E70368DF
:10087000126843F0200303600823C3610023B7E735
:100880001C3900002DE9F05F894604464FF0000A4C
:10089000DFF874B1FB44C0F820A02046E168884727
:1008A000002874D0252806D0D4E901219047206A79
:1008B000401C2062F1E700265F462046E168884739
:1008C0002028054607DB312D05D2781910F8200CB9
:1008D00008B10643F1E7B00701D526F00406C4F8D5
:1008E0001CA00027C4F818A02A2D09D0284603F020
:1008F000CBFB38B304EB8708303DC8F8185019E03B
:1009000059F8041B204604EB87029161E16888478F
:10091000012F054618D1E069002820DA26F02006CC
:100920001DE0D8F8180000EB800005EB40003038DF
:10093000C8F818002046E1688847054603F0A4FB84
:100940000028EED1012F0AD02E2D08D12046E168D3
:1009500088477F1C0546022F46F02006C4DBA069AD
:10096000002803DA404246F00106A061F00701D0FA
:1009700026F010066C2D0BD0682D09D04C2D39D0E7
:100980006A2D35D0742D35D07A2D33D016E038E06D
:10099000E1682F4620468847B842054609D16C2FAA
:1009A00026D04FF48060E16806432046884705461C
:1009B00004E06C2F1AD04FF4807006430DB3A5F1FC
:1009C0004100192802D8203546F400664A462946D7
:1009D000204626604E46FFF727FC80B101280BD049
:1009E000F61D26F0070000F1080956E74020E4E76D
:1009F0008020D8E70020D6E706F104094DE7284615
:100A000052E7206ABDE8F09FAC38000030B5B0F185
:100A10000A0271F100034FEA900E4EEA817EB0EBBC
:100A20000E0061EB91014FEA101E4EEA017E10EBC1
:100A30000E0041EB11114FEA102E4EEA016E10EB41
:100A40000E0041EB11214FEA104E4EEA014E10EB21
:100A50000E0041EB1141401841F100014FEAD00076
:100A600040EA41704FEAD1014FEA810444EA9074B0
:100A700010EB800544EB01046D1944EB0404521B98
:100A8000A3414FF0000348BF0A3200D530BD401CDF
:100A900041F1000130BD2DE9F0470D4699469246DF
:100AA000044600F124080168880604D5E06921F0B5
:100AB0001001216000E00120A84201DD471B00E099
:100AC0000027A1697A1902EB0900081AA0612078B1
:100AD000C00602D42046FFF7E7FC002608E0D4E970
:100AE00001211AF806009047206A401C761C2062FB
:100AF0004E45F4DB2078C0060AD52046FFF7D4FC2B
:100B000006E0D4E9012130209047206A401C206291
:100B1000381EA7F10107F4DC07E0D4E9012118F839
:100B200005009047206A401C2062281EA5F101059F
:100B3000F3DC2046FFF7CEFC2078000602D5022029
:100B4000BDE8F0870120FBE72DE9FF4F0C461E466C
:100B50004FF0FF378BB0D2E90001DDF860800A90DA
:100B60008A46C1F30A5505B93D46002108464FF0B3
:100B70000000BAF1000F00F4400005DA00EB80003D
:100B80004FF4400101EA50004FEA9059B9F1010FCA
:100B900000DDB9460A9850EA4A000ED044F61050DB
:100BA000A5F2FF3545432F14B8F1000F1ED0754252
:100BB000291E1EDDC9F100021CE0B8F1010F4FF043
:100BC000000001D0302103E0F24305E02154401C35
:100BD000B042FBDB30460022002121540B99C1F8C2
:100BE0000880C1E900200FB0BDE8F08FBD1B6D1C6F
:100BF000DEE74A4600DA694206A800F0F3FB06ABDE
:100C000093E8070003AB83E8070050460A9902F017
:100C10005BFE8DE80700A0F500501F380090039898
:100C2000002D0ADD42F21F014A460844002303A9B1
:100C30000390684603F0C4F809E0A0F500504A4666
:100C40001F38002303A90390684603F0CEF88DE80F
:100C500007000004000C03D04FF0FF30410800E013
:100C60001046B8F1000F03D00022009215461EE096
:100C7000751E05D4FFF7CAFE303262556D1EF9D5D8
:100C8000B3460122084302D000227F1C04E02078F2
:100C9000302801D100227F1E002A099784D01DE050
:100CA000112D07DAFFF7B2FE303262556D1C50EAA3
:100CB0000102F5D1084302D00098C8B10EE000212E
:100CC000681E05E0235C625C63542254401E491C8C
:100CD0008142F7DBAB46A81B401E0990002004F8B8
:100CE0000B000B98099AC0F80880C0E9002B7AE73E
:100CF00011264FF0000857E72DE9F04F88460446CB
:100D0000D21D22F0070191B0D1E90001CDE90A011D
:100D100003F0A2F902460B98C00F01D02D2007E086
:100D20002068810701D52B2002E0202101EAC000C4
:100D3000032A099001D0072A05DB034641462046D5
:100D400000F010FB0BE12078800601D5E06900E09F
:100D50000620B8F1650F814606D0B8F1660F18D0AD
:100D6000B8F1670F70D131E00020B9F1110F009098
:100D700001DB112301E009F101030AAA01A90CA872
:100D8000FFF7E2FEDDE90C70002609F1010583465C
:100D900047E001204B4600904FF000470AAA01A906
:100DA0000CA8FFF7D1FEDDE90DB00C995D460026D9
:100DB00010B909F101000D18B9EB050003D4C0F119
:100DC000FF3609F10105A5EB09002BE0B9F1010F90
:100DD00001DA4FF001090020B9F1110F00904846E7
:100DE00001DD112300E003460AAA01A90CA8FFF7C0
:100DF000ABFEDDE90C704D460026834620780007E7
:100E00000AD4AB4500DA5D4601A8012D04DD411985
:100E100011F8011C302907D04F4502DA17F1040FF1
:100E200004DA012082460FE06D1EEEE7002F02DC9F
:100E3000ED1B3E4403E0781CA84200DD7D1CB81B7E
:100E400000F1010A4FF000472078000703D4AA45BB
:100E500001DB4FF0FF3A0021B7F1004F0DF14308DD
:100E60008DF8431024D002202B23002F01DA7F427B
:100E70002D230A21021EA0F1010000DC5FB197FBC7
:100E8000F1FC97FBF1F201FB1C7C17460CF1300CD6
:100E900008F801CDEEE7A8F10100037021880905EB
:100EA00001D5452100E06521A0F1010800F8011CF1
:100EB00009980FA9A1EB0807FF1D00B101204119F6
:100EC00001EBEA70A1693844081A401EA06120783D
:100ED000C00602D42046FFF7E7FA099828B1D4E902
:100EE00001219047206A401C20622078C00622D54C
:100EF0002046FFF7D9FA1EE0002E04DBB34502DDE1
:100F000001A8805D00E03020D4E901219047206AEB
:100F1000401C2062761CAAF101005FEA000A0AD197
:100F200000F01CFAC0680168405CD4E901219047D8
:100F3000206A401C2062281EA5F10105DCDC07E0C8
:100F4000D4E9012118F8010B9047206A401C206267
:100F5000381EA7F10107F3DC2046FFF7BBFA032098
:100F600011B041E62DE9F04F04460D46D21D22F0A6
:100F7000070089B0D0E900974846394603F06CF87D
:100F80000246F80F01D02D2307E02068810701D524
:100F90002B2302E0202101EAC0038DF820300BB1A1
:100FA000012000E00020032A824601D0072A04DB4A
:100FB0002946204600F0D6F93FE12078800601D48A
:100FC0000D2500E0E569C7F30A560D2D49DA002129
:100FD0004FEA175B08464FF00000002F00F4400076
:100FE00007DA00EB80004FF4400100EBD07001EA1B
:100FF00060008115012901DD4FF0FF3100224FEA29
:10100000850CBCF1180F06D31346ACF118004FF055
:101010008052C24003E04FF4801323FA0CF30CF12A
:101020000C0CBCF1200F04D3ACF1200C09FA0CF02D
:1010300001E007FA0CF000294FF0004801DD18B973
:101040000FE00ED140450CD319EB02095F4121B9E5
:10105000404502D19F4329EA0209BBEB175F00D04C
:10106000761C2088000502D57B48784402E07A4847
:101070007844193808AA302302F80A30037C0AF1B0
:101080000101002E0AF1020A53546A4602DC4FF0B5
:10109000300101E04FF031014FF001088DF80010F0
:1010A00002D0A6F2FF3603E059EA470100D06B4EAA
:1010B000002D02DC2178090704D54FF002082E210B
:1010C0008DF80110C44600210BE0C7F303433F0134
:1010D000C35C491C6D1E02F80830052908F101089F
:1010E00001DA002DF1DC00210CE000EB1973491C42
:1010F0001B786D1E082902F808304FEA091908F11B
:10110000010801DA002DF0DC21688B0602D516E01B
:10111000A8F10108E04505DD02EB080313F8013CE6
:10112000302BF5D0B8F1000F09DD02EB080313F8FE
:10113000013C2E2B03D1090701D4A8F10108002D91
:1011400005DD3E2102F808106D1E08F10108407C03
:10115000002E02F8080008F1010804DA2D2076427A
:1011600002F8080002E02B2002F808000A214FF4E0
:101170007A70864208F101080BDB96FBF0F33033FE
:1011800002F8083096FBF0F308F1010800FB136643
:1011900001E0642E0CDB642096FBF0F3303302F8A0
:1011A000083096FBF0F308F1010800FB136601E03C
:1011B0000A2E06DB96FBF1F0303002F8080008F149
:1011C000010896FBF1F001FB1060303002F80800D6
:1011D000A16908F1010808EB050202EB0A00081AF0
:1011E000A0612078C00602D42046FFF75DF9216A8D
:1011F00008AE01EB0A00206204E0D4E9012116F8F0
:10120000010B9047BAF1010AF7D22078C00602D547
:101210002046FFF749F96E4609E016F8010B3E2813
:101220000FD0D4E901219047206A401C2062B8F118
:101230000108F2D22046FFF74DF909B00320BDE8BE
:10124000F08F206A2844206203E0D4E90121302095
:1012500090476D1EEBD3F8E7FA30000002FCFFFF69
:1012600010B5436913B1AFF3008001E0FFF755F902
:10127000012010BD127800F124010A7000224A708A
:101280000122EDE711684FF0FF32E9E710B543693D
:1012900013B1AFF3008001E0FFF7D6F9012010BDD4
:1012A000128800F1240182840022C2840122EDE729
:1012B00011684FF0FF32E9E72DE9F04116460C4680
:1012C000054600F043F8036893F80101012807D0B0
:1012D000FF2C12D8185D80B101202C70BDE8F08180
:1012E000D3F807013246214603F20713C7182846F0
:1012F000BC46BDE8F041002360474FF0FF30EDE70A
:10130000754600F0EBF8AE4605006946534620F0FE
:101310000700854618B020B5FFF700F8BDE820406B
:101320004FF000064FF000074FF000084FF0000BA1
:10133000AC46ACE8C009ACE8C009ACE8C009ACE810
:10134000C00921F007018D467047000010B500F07C
:1013500005F8001D10BD00BF6D2D0000004870474E
:10136000300000202DE9F0411F46044603260168A5
:10137000072A01F4006004DB08B116A505E016A5F4
:1013800003E008B115A500E015A521F010002060CC
:10139000A069C01EA0610FB1401EA0612046FFF7EA
:1013A00083F84FB1D4E9012138469047206A401CA8
:1013B0002062C01C206206E0206AFAE7D4E901211D
:1013C00015F8010B9047761EF8D22046FFF782F8F9
:1013D000BDE8F0814E414E006E616E00494E460000
:1013E000696E66002DE9F047814616468AB0354899
:1013F00078440DC88DE80D0032487844801C03AC59
:101400000DC884E80D0041F69B300844372190FB5D
:10141000F1F290FBF1F5A5F1800501FB12041B3CF4
:1014200002D56442012000E00020DFF898A0804649
:101430000027FA44AAF1BE0A0EE0E0070AD03246BD
:10144000684607EB470101230AEB810102F0CDFC5E
:101450008DE8070064107F1C002CEED1194F7F44EB
:10146000AE3F19E0E80715D007EB04100DF1180A9C
:1014700090E80E008AE80E00C068F04201D1981989
:1014800008903246012306A903A802F0AEFC03AB84
:1014900083E807006D10641C002DE3D14FF00103B9
:1014A00032466946B8F1000F03A802D002F088FC6A
:1014B00001E002F09AFCC9E90001C9F808200AB06D
:1014C000BDE8F087042E000010B50446AFF300809D
:1014D0002046BDE81040FEF70CBF000000487047F2
:1014E000100000200000000030B44FF0013C50F824
:1014F000042B51F8043BCCFA52F4D51A20D1FCB994
:1015000050F8042B51F8043BCCFA52F4D51A17D1F9
:10151000B4B950F8042B51F8043BCCFA52F4D51A64
:101520000ED16CB950F8042B51F8043BCCFA52F4AC
:10153000D51A05D1002CDAD030BC4FF0000070472E
:1015400029BAB1FA81F111F01801D1F120008440DB
:10155000F2D1CA40CB4012F0FF0213F0FF0330BCBF
:10156000D01A704701491820ABBEFEE726000200E2
:10157000704700002DE9F0478AB040F27004C2F2D3
:1015800000042046C821FEF765FF40F28410C2F235
:101590000000214601224FF0FF3301F0C9FD012870
:1015A0000CD0214611F8012B40F28410C2F2000049
:1015B0004FF0FF3301F0BCFD012805D10024204687
:1015C0000AB0BDE8F08700BF60781038112800F23B
:1015D0004B81DFE810F013003D0071009F00C50053
:1015E000EB00110137013D01430149014901490166
:1015F0004901490149015501610100BF44F25730D9
:10160000C0F6000000F0C4FC40F26410C0F201001B
:10161000019044F2EF302578D4F80280C0F6000043
:1016200000F0B6FCEF1E00F05F8140F23819002197
:10163000C2F2000903AE0025605C314603904846C3
:10164000012200F04FFD0135E9B28F42F4D84CE1A0
:1016500044F22B30C0F6000000F09AFC41F618105E
:10166000C2F22010059041F21450C1F2167004909D
:1016700041F21010C1F21230039044F2EF3025789D
:10168000D4F80280C0F6000000F082FCEF1E00F0EB
:10169000658140F238190021C2F2000901AE00252F
:1016A000605C314601904846012200F01BFD013587
:1016B000E9B28F42F4D852E144F2E920C0F60000CA
:1016C00000F066FC42F20000CEF2040000682578CB
:1016D0006FF31F30ADF8040044F2EF30D4F802800D
:1016E000C0F6000000F054FCEF1E00F07B8140F2D9
:1016F00038190021C2F2000903AE0025605C3146B2
:1017000003904846012200F0EDFC0135E9B28F421A
:10171000F4D868E144F26B30C0F6000000F038FC09
:1017200044F2BE302578D4F80280C0F6000000F004
:101730002FFCEF1E00F0868140F238190021C2F222
:10174000000903AE002500BF605C314603904846A7
:10175000012200F0C7FC0135E9B28F42F4D872E1F2
:1017600044F24030C0F6000000F012FC2578281941
:1017700050F8038C44F21B40C0F6000000F008FC57
:10178000EF1E00F0A38140F238190021C2F20009D7
:1017900003AE0025605C314603904846012200F00C
:1017A000A1FC0135E9B28F42F4D890E144F2FD206A
:1017B000C0F6000000F0ECFB2578281950F8038CE7
:1017C00044F2EF30C0F6000000F0E2FBEF1E00F044
:1017D000D98140F238190021C2F2000903AE002578
:1017E000605C314603904846012200F07BFC0135E5
:1017F000E9B28F42F4D8C6E144F21530C0F60000D9
:1018000000F0C6FB2578281950F8038C44F26E507E
:10181000C0F6000000F0BCFBEF1E00F0DB8140F2E0
:1018200038190021C2F2000903AE0025605C314680
:1018300003904846012200F055FC0135E9B28F4281
:10184000F4D8C8E144F2A530C0F600001CE000BFA7
:1018500044F2BF20C0F6000016E000BF44F286301C
:10186000C0F6000010E000BF44F25450C0F6000083
:1018700000F08EFB002420460AB0BDE8F08700BFD0
:1018800044F2D420C0F6000000F082FB0124204680
:101890000AB0BDE8F08700BF0FF2706000F078FB7F
:1018A0002578281950F8039C44F2EF30C0F6000068
:1018B00000F06EFB40F23818EF1EC2F2000800F094
:1018C000E58140F2381A0021C2F2000A03AE002579
:1018D000605C314603905046012200F003FC013564
:1018E000E9B28F42F4D8D2E1002040F23811C2F2BE
:1018F0000001096840458A6842F001028A6040F0B0
:10190000978044F23950C0F6000000F041FB40F2ED
:10191000841440F2CD40C2F20004ADF80C0003A9DB
:10192000204602224FF0FF3301F0E0FC01A92046DF
:1019300004224FF0FF3301F0D9FC9DF805109DF80B
:1019400006209DF8073044F29D40C0F6000000F0EC
:101950001FFB012420460AB0BDE8F087002040F2BA
:101960003811C2F20001096840458A6842F001025C
:101970008A6019D144F23950C0F6000000F008FB2B
:1019800040F2841440F6CD40C2F20004ADF80400E9
:1019900001A9204602224FF0FF3301F0A7FC03A962
:1019A00020460C220FE000BF44F2DF40C0F60000EA
:1019B00000F0EEFAAB208DF8040040F28410C2F281
:1019C000000001A901224FF0FF3301F08FFC48F223
:1019D0000000C0F600000168446881F3088801F047
:1019E00035F8C8E0002040F23811C2F20001096861
:1019F00040458A6842F001028A6019D144F23950A8
:101A0000C0F6000000F0C4FA40F2841440F2CD2089
:101A1000C2F20004ADF80C0003A9204602224FF0E8
:101A2000FF3301F063FC01A92046022276E100BFEA
:101A300044F2DF40C0F6000000F0AAFAAB208DF8B7
:101A40000C0065E1002040F23811C2F20001096883
:101A500040458A6842F001028A6040F03B8144F2CE
:101A60003950C0F6000000F093FA40F2841440F2BE
:101A7000CD10C2F20004ADF80C0003A920460222EA
:101A80004FF0FF3301F032FC00200990CDE9070050
:101A9000CDE90500CDE9030003A800F04DFC07984F
:101AA00001A98DF80400204601224FF0FF330124E4
:101AB00001F01CFC9DF8041044F2B940C0F600008F
:101AC00000F066FA20460AB0BDE8F087002040F238
:101AD0003811C2F20001096840458A6842F00102EB
:101AE0008A6040F0F78044F23950C0F6000000F000
:101AF0004FFA40F2CD10ADF80C0040F28410C2F263
:101B0000000003A902224FF0FF3301F0EFFBD4F8ED
:101B100002400121C0F2020104F1784001F5602188
:101B200088424FF0000004F1604138BF0120B1F558
:101B3000003F4FF0000198BF0121084304F17041BC
:101B40000022B1F1011F38BF012210438DF80C00B3
:101B500000F0D88044F27860C0F6000000F018FA77
:101B600040F28410C2F2000003A901224FF0FF33BB
:101B7000013401F0BBFBA047012420460AB0BDE8B8
:101B8000F08700BF002040F23811C2F2000109685E
:101B900040458A6842F001028A6040F09B8044F22E
:101BA0003950C0F6000000F0F3F940F2CD10ADF866
:101BB0000C0040F28410C2F2000003A902224FF090
:101BC000FF33022501F092FBA178FF2940F0B0809D
:101BD000FF20B7E0002040F23811C2F2000109688E
:101BE00040458A6842F001028A6073D144F239505C
:101BF000C0F6000000F0CCF940F2CD10ADF80C00BA
:101C000040F28410C2F2000003A902224FF0FF3319
:101C100001F06CFBD4F802500122C0F2020205F17F
:101C2000784102F56022002091424FF0000105F159
:101C30006042A6798DF8040038BF0121B2F5003F5B
:101C40004FF0000298BF0122114305F17042B2F13A
:101C5000011F38BF0120084301288DF80C0040F017
:101C6000998044F29760C0F6000000F091F900F00E
:101C7000A1FC002800F0E88000208DF8040044F268
:101C8000185001ACC0F6000089E000BF0020D8F871
:101C9000001048458A6842F001028A601AD144F275
:101CA0003950C0F6000000F073F940F2CD10ADF8E5
:101CB0000C0040F28410C2F2000003A902224FF08F
:101CC000FF3301F013FBA478022C74D0012C6FD1E8
:101CD000552470E044F2DF40C0F6000000F058F9EF
:101CE000AB208DF80C0040F28410C2F2000003A972
:101CF00001224FF0FF33012401F0F8FA20460AB028
:101D0000BDE8F08744F2FA40C0F6000000F040F968
:101D100040F28410C2F2000003A901224FF0FF3309
:101D200001F0E4FA012420460AB0BDE8F08700BFC4
:101D3000E07808440C284FF0020038BF01200C293D
:101D400028BF28468DF80B0040F28410C2F2000034
:101D50000DF10B0101224FF0FF3301F0C7FA9DF89E
:101D60000B00012844D0FF2868D144F29120C0F62E
:101D7000000000F00DF90020019044F21020C0F6A0
:101D8000000090E88E0000690DF10C0C8CE88E00CC
:101D90003DE000BF44F2AC6003ACC0F6000000F0D0
:101DA000F7F840F28410C2F200002146A0E700BF1D
:101DB000002C08BFAA2400F057FB18B15BA000F06C
:101DC000E7F86FE044F20160C0F6000000F0E0F8D0
:101DD000022003900120CDE9060403A800F0C8FA10
:101DE000002853D061A000F0D3F800F033FB59E095
:101DF00044F26020C0F6000000F0CAF80020019014
:101E0000CDE90300A078E178CDE905010220079033
:101E100000F0D0FB03A801A900F0C8F9044600F0C7
:101E200003FB019944F26D40C0F60000224600F029
:101E3000AFF8012420460AB0BDE8F08744F23C2008
:101E4000C0F6000020E500BF44F23F60C0F600008D
:101E500000F09EF8002E3FF40FAF073414F8012B6A
:101E600000202946002300F015FBC8BB013E05F108
:101E70000105F3D100F0D8FA01208DF8040044F2F6
:101E8000576001ACC0F6000089E700BF44F2DF50A4
:101E9000C0F6000000F07CF800F0D0FA10B900F0B5
:101EA000D9FA28B344F28950C0F6000000218DF819
:101EB0000C1000F06DF840F28410C2F2000003A98B
:101EC00001224FF0FF33012401F010FA44F2B02058
:101ED000C0F6000000F05CF820460AB0BDE8F087CC
:101EE00044F21E50C0F6000000F052F8C4E600BFF5
:101EF00044F24440C0F60000214600F049F844F2A4
:101F0000B350C0F600000121D1E700BF2043424C8E
:101F10005F4348414E47455F524F505F4C65766581
:101F20006C5F434D44200D0A000000004661696C5F
:101F30006564202D3E20556E6C6F636B2074686560
:101F400020464C415348204F7074696F6E20436F98
:101F50006E74726F6C20526567697374657273205A
:101F6000616363657373200D0A0000004661696C4C
:101F70006564202D3E2050726F6772616D206F7016
:101F800074696F6E206279746573200D0A00000019
:101F900083B0B0B59BB004461FA802AD0EC0284662
:101FA0006421FEF757FA1FAA284621460192FEF740
:101FB0003FFA40F24010C2F20000294664224FF07E
:101FC000FF3301F093F91BB0BDE8B04003B0704798
:101FD000FEE7000070470000EFF3108072B600BF0C
:101FE000FEE70000F0B581B040F2C817044643F6A2
:101FF0000C46C2F200070020C4F20206F86100F0AD
:10200000C7FB3168C9031BD43068C0071CBF01205F
:102010003060306810F0F20F2ED03068C00633D434
:102020003068800639D4306840063FD430680006F6
:1020300045D4306880074BD4012001B0F0BD00BF0B
:10204000F4B10546601C0DD13068C003DCD53068A2
:10205000C00344BF30685FEAC030D5D53068C003E4
:10206000F2D4D1E700F094FB401BA04208D83068BE
:10207000C003F7D4C8E700BF002001B0F0BD00BF27
:10208000032001B0F0BD00BFF86940F01000F86116
:102090001020306030688006C5D5F86940F008002F
:1020A000F8612020306030684006BFD5F86940F004
:1020B0000400F8614020306030680006B9D5F86946
:1020C00040F00200F8618020306030688007B3D5AE
:1020D000F86940F02000F86102203060012001B072
:1020E000F0BD0000B0B5864602208EF80500DEF88F
:1020F000000042B302F0030C94084FF0000210D02D
:10210000A1F11003A2EB840453F8105F043A0560B8
:102110005D68944205609D680560DD680560F3D1E7
:102120005242BCF1000F0ED051F82230BCF1010F29
:10213000036008D001EB82014A68BCF1020F026023
:102140001CBF89680160006801218EF80510B0BDD0
:10215000002804BF0120704710B50446407918B12B
:1021600001206071002010BD00202071204600F089
:1021700005F801206071002010BD000043F6300119
:10218000C4F202010068A1F50362904218BF7047D3
:1021900081B000200090086840F480500860086812
:1021A00000F480500090009801B070472DE9F04392
:1021B00081B040F2C818C2F2000898F81820012A2D
:1021C00004D1022001B0BDE8F08300BF0546012024
:1021D00088F818004CF250308946FFF703FF28B109
:1021E000002188F8181001B0BDE8F0834FF0FF30EF
:1021F000C9F80000286843F610470128C4F2020716
:102200001CD128693968000221F4407139603968AD
:1022100080B241F0040139603968084340F48030ED
:1022200038604CF25030FFF7DDFE396821F00401D0
:10223000396057F8101C89053BD452E0D5E902609B
:102240003044864230D2F000841C00BF28694FF42D
:102250004072C1B2032939684FEA002021F440716D
:102260003960396838BF82B241EA020038603868A4
:1022700020F0F8003860386820433860386840F44F
:10228000803038604CF25030FFF7ACFE39680028DF
:1022900021F0FA01396047D1D5E90201013608443D
:1022A000864204F10804D1D3002057F8101C890598
:1022B00017D557F8101C21F4007147F8101C57F877
:1022C000101C41F4006147F8101C57F8101C21F451
:1022D000006147F8101C57F8101C41F4007147F8D2
:1022E000101C57F8101C49057FF57AAF57F8101CE1
:1022F00021F4806147F8101C57F8101C41F48051FC
:1023000047F8101C57F8101C21F4805147F8101C96
:1023100057F8101C41F4806147F8101C002188F820
:10232000181001B0BDE8F083C9F8006057F8101C20
:102330008905BED4D5E7000043F614410F22C4F24C
:10234000020102604A8882604A78CC2A02D1CC22FB
:1023500004E000BF4A78AA2A18BF552202610A6821
:1023600002F0E0020276097801F00C014161704749
:102370002DE9F04140F2C815C2F20005297E01297D
:1023800004BF0220BDE8F0810446012028762178B0
:1023900043F61446C907C4F2020613D0D4E9017803
:1023A0004CF25030FFF71EFE012F05D150B9708856
:1023B00020EA080004E000BF20B9708840EA080065
:1023C000708000202178890708D527694CF25030A9
:1023D000FFF708FE002804BF777000202178490726
:1023E00005D5277E4CF25030FFF7FCFD80B12178F7
:1023F000090708D5207D317801F0F301317031787B
:1024000008433070002000212976BDE8F08100BF2C
:10241000307807F0E00100F01F0008443070002021
:1024200021780907E6D4EEE743F61041C4F2020131
:10243000086840F0004200200A60704743F61441EB
:10244000C4F20201087840F002024CF250300A70E7
:10245000FFF7C8BD43F61441C4F20201086840F01A
:10246000010200200A60704743F60840C4F20200EF
:10247000C168C90704BF0120704742F63B21C0F67E
:102480001901016046F67F61C4F65D4101600020DC
:10249000704700002DE9F04381B040F2C814C2F249
:1024A00000049046227E012A04D1022001B0BDE83A
:1024B000F08300BF0746012020764CF250301E46C4
:1024C0000D46FFF78FFD28B10021217601B0BDE850
:1024D000F08300BF43F61049022FC4F2020917D05F
:1024E000012F2BD0002F3FD1D9F8000020F44070ED
:1024F000C9F80000D9F80000C9F80000D9F80000B8
:1025000040F00100C9F8000085F8008043E000BFFA
:10251000D9F8000020F44070C9F80000D9F8000094
:1025200040F40070C9F80000D9F8000040F0010044
:10253000C9F80000C5F800802DE000BFD9F8000000
:1025400020F44070C9F80000D9F8000040F4807011
:10255000C9F80000D9F8000040F00100C9F80000F7
:10256000A5F8008017E000BFD9F8000020F4407003
:10257000C9F80000D9F8000040F44070C9F8000024
:10258000D9F8000040F00100C9F80000C5F800804B
:10259000BFF36F8F6E604CF25030FFF723FDD9F818
:1025A000001021F00101C9F800100021217601B0CE
:1025B000BDE8F08343F60440C4F20200C168B1F103
:1025C000FF3FC4BF0020704740F22311C4F267519F
:1025D000016048F6AB11CCF6EF510160C068C00F46
:1025E000704700002DE9F04F82B000F13E4707F13F
:1025F000FF77860546EA972741F60046C4F20206B1
:10260000082243F6004EB04208BF0722C4F2010E72
:10261000072F38BF3A46002600274FF000080092E7
:1026200009E000BF08F101080237B8F1100F06F108
:10263000040600F0A3800D68012202FA08F415EAEE
:102640000409EFD0D1F804B003220BF0030CACF175
:102650000105BA40012D6FEA020A0FD88268CD68E1
:1026600002EA0A02BD402A4382604268A243CBF3D9
:10267000001404FA08F42243426005E0BCF1030FA1
:1026800002D14FF0030C1EE0C2688C6802EA0A0215
:10269000BC402243BCF1020FC26014D16FF00302B0
:1026A00002EA58020244D2F820C006F01C040F23AC
:1026B0000D69A3402CEA0303A5402B431362D1F814
:1026C00004B00BF0030C02680CFA07F302EA0A02EA
:1026D0001A431BF4403F0260A4D0002243F6440397
:1026E0000192C4F202031A684FF6084C42F4804289
:1026F0001A601A68CFF6FF7C02F480420192019AB8
:1027000028F00302724452F80C3006F00C050F2436
:10271000AC40A343009C04FA05F52B4342F80C306F
:10272000DEF808204B6842EA090543F60C4CDC024F
:1027300058BF22EA0905CEF80850C4F2010CDCF8B3
:1027400000209C0242EA090558BF22EA0905CCF89C
:102750000050DEF804209C0342EA090558BF22EA33
:102760000905CEF80450DEF80020DB0342EA090533
:1027700058BF22EA0905CEF8005053E702B0BDE881
:10278000F08F0000002A08BF090481617047000033
:1027900040F2E810C2F200000068704740F200000A
:1027A00040F2E811C2F20000C2F2000100780A68AB
:1027B000104408607047000080B543F60040C4F242
:1027C0000200016841F400710160016841F4806118
:1027D0000160016841F480710160032000F074F829
:1027E0000F2000F005F800F027F8002080BD000061
:1027F00070B540F20006C2F2000640F208013278DD
:10280000C2F200014FF47A730968B3FBF2F2044696
:10281000B1FBF2F1084600F0E3FB0F2C4FF001058D
:1028200008D838B94FF0FF3021460022002500F0CB
:102830001FF87460284670BD82B0002043F6400146
:102840000190C4F202014A6842F480424A604A6838
:1028500002F480420192019A0090086840F0805092
:102860000860086800F080500090009802B070473F
:1028700010B54EF60C5CCEF2000CDCF80030C3F361
:10288000022E8EF00704042C28BF0424BEF103039B
:102890004FF0FF3E0EFA04F438BF0023A1439940E5
:1028A0000EFA03F39A43114300F00F0200F1604364
:1028B0000901043A03F564436244002848BF02F169
:1028C0000C03197010BD00004EF60C51CEF2000141
:1028D0000A684FF6FF031A4060F30A2242F0806054
:1028E00040F0FD7008607047002804BF0120704769
:1028F0002DE9F04143F60808C4F202080446D8F86E
:10290000F8030D4600F00700884207D288F8F85314
:10291000D8F8F80300F00700A84277D120688107B3
:1029200017D5410705D5D8F8001041F4E051C8F893
:102930000010010705D5D8F8001041F46041C8F82F
:102940000010D8F80010A26821F0F0011143C8F877
:102950000010C00740D1D8F8F80300F00700A842E3
:1029600007D988F8F853D8F8F80300F00700A84210
:102970004CD12068410707D5D8F80010E26821F44F
:10298000E0511143C8F80010000708D5D8F800003E
:10299000216920F4604040EAC100C8F8000000F05E
:1029A00011F9D8F8001044F22422C1F30311C0F643
:1029B0000002515C40F2080220FA01F140F20400EA
:1029C000C2F200000068C2F200021160FFF710FFBF
:1029D0000020BDE8F08100BF6068811E022907D297
:1029E00058F8081C89015CBF0120BDE8F08111E0A6
:1029F000012807D158F8081C89035CBF0120BDE8F5
:102A0000F08107E058F8081C890703D40120BDE8CD
:102A1000F08100BFD8F8001021F003010843C8F886
:102A20000000FFF7B5FE064641F28837D8F80000EF
:102A3000616800F00C00B0EB810F8CD0FFF7A8FEAE
:102A4000801BB842F2D90320BDE8F081F0B581B017
:102A500043F60006C4F20206FFF79AFE3168044608
:102A600041F00100306000BF3068800706D4FFF7F6
:102A70008FFE001B0228F7D940E000BF306840F00D
:102A800080003060FFF784FE0546002041F2883761
:102A9000B06000BFB468FFF77BFE14F00C0F044673
:102AA00004D0601BB842F5D928E000BF306820F49C
:102AB000502030603568FFF76BFEA903054603D54B
:102AC000281B6428F6D919E0306820F08070306047
:102AD0003468FFF75DFEA101044603D5601B0228A0
:102AE000F6D90BE0306820F080603060306800017B
:102AF00008D5FFF74DFE001B0228F7D9032001B0CF
:102B0000F0BD00BF43F21000C0F20040706043F21D
:102B10000000C2F20000C6F88400F06840F208012C
:102B200020F4F850F060F06842F2004220F40050C7
:102B3000F060F068C2F2000140F41F00F060F0683D
:102B4000C0F2F40240F40010F060706F20F0010059
:102B50007067706F40F08070706740F20400C2F2DE
:102B6000000000680A60FFF743FE002818BF01203C
:102B700001B0F0BD40F2080043F60801C2F20000C7
:102B8000C4F202010068096844F23422C1F38221D0
:102B9000C0F60002515CC8407047000040F20800D7
:102BA00043F60801C2F20000C4F20201006809689D
:102BB00044F23422C1F34231C0F60002515CC840F5
:102BC0007047000010B543F60404C4F202046068C4
:102BD00000F00C0142F200400829C0F2F40007D0D6
:102BE000042918BF10BD41F20020C0F27A0010BDC8
:102BF000216801F03F02216823684902C3F388116C
:102C000006D4A1FB00010023FDF79AFB07E000BFFB
:102C100041F20020C0F27A004843B0FBF2F0216894
:102C20000222C1F3014102EB4101B0FBF1F010BD02
:102C3000002804BF012070472DE9F04182B004460E
:102C4000007843F60006C007C4F202060CD0B06854
:102C500000F00C00042840F081803068800303D528
:102C60006068002800F06A81207880071BD5B06872
:102C700010F00C0F09D0B06800F00C00082840F0EC
:102C800087807068400200F183803068800703D538
:102C9000E068012840F052813068216920F0F80096
:102CA00040EAC10030602078000713D42078400744
:102CB0002AD4A569002D00F03C81B06800F00C001A
:102CC000082840F0A180012D40F01081012002B0C1
:102CD000BDE8F0816069002840F20000C4F247209E
:102CE00000F07E800121C0F8801EFFF751FD0546EF
:102CF000706F8007DAD4FFF74BFD401B0228F7D92D
:102D0000032002B0BDE8F081306C5FEAC0080AD44D
:102D100000200190306C40F080503064306C00F046
:102D200080500190019847F20007C4F2000738680C
:102D3000C00547D4386840F480703860FFF728FD3C
:102D4000054600BF3868C0053CD4FFF721FD401B95
:102D50000228F7D9032002B0BDE8F081B06800F086
:102D60000C00082803D1706840023FF576AF606818
:102D7000B0F5803F07D0B0F5A02F40F09B803068C1
:102D800040F480203060306840F4803030609BE058
:102D9000E06800285CD00020C4F2472001210160D7
:102DA000FFF7F6FC054600BF306880073FF574AFBB
:102DB000FFF7EEFC401B0228F6D9032002B0BDE865
:102DC000F08100BFA068012805D0052854D1306FDC
:102DD00040F004003067306F40F00100306755E08C
:102DE0000021C0F8801EFFF7D3FC0546706F8007F6
:102DF0007FF55CAFFFF7CCFC401B0228F6D903201F
:102E000002B0BDE8F08100BF0027C4F247270020D0
:102E10003866FFF7BDFC022D05460DD130688001F4
:102E200040F19080FFF7B4FC401B02284FF00300F4
:102E3000F4D902B0BDE8F0813068800179D5FFF7A0
:102E4000A7FC401B02284FF00300F5D9F1E700BFB3
:102E50000020C4F2472000210160FFF799FC0546DD
:102E6000306880077FF51FAFFFF792FC401B0228F8
:102E70004FF00300F4D9DCE7316F002821F00101A5
:102E80003167316F21F0040131677DD0FFF780FC9D
:102E9000054641F2883700BF306F800700F1868019
:102EA000FFF776FC401BB842F6D9032002B0BDE81C
:102EB000F08100BF3168002821F480313160316831
:102EC00021F4802131607BD0FFF762FC054600BF12
:102ED000306880033FF5C8AEFFF75AFC401B6428FA
:102EE000F6D9032002B0BDE8F08100BF7068E16947
:102EF00000F480028A4221D1216A00F03F028A4216
:102F00001CD147F6C071626A0140B1EB821F15D136
:102F1000A16A4FF6FF73C903994300F44032A1F54B
:102F200080318A420AD1E16A00F07060B0EB016F33
:102F300004D1002002B0BDE8F08100BF012002B042
:102F4000BDE8F08104F11C052FCD084340EA821052
:102F5000D9034FF6FF729143A1F5803140EA056035
:102F60000843706001203866FFF712FC044600BF7A
:102F700030688001DDD4FFF70BFC001B02284FF006
:102F80000300F5D955E700BFFFF702FC054641F203
:102F9000883700BF306F800708D5FFF7F9FB401B6B
:102FA000B8424FF00300F5D943E700BFB8F1000F76
:102FB0003FF57FAE306C20F08050306479E600BF82
:102FC000FFF7E6FB054600BF306880037FF54CAE97
:102FD000FFF7DEFB401B64284FF00300F4D928E71D
:102FE000411E0020B0EB116F1CBF012070474EF254
:102FF0001002CEF2000251604EF62351CEF20001D3
:10300000F0230B700721906011607047002804BF07
:103010000120704710B5044690F83D0028B9002003
:1030200084F83C00204600F021F8242084F83D007C
:103030002068C16821F40051C160204600F0A0FB67
:103040002068016921F490410161416921F02A0160
:103050004161C16841F40051C16000202021206419
:1030600084F83D1084F83E1010BD000080B586B095
:10307000006844F60002C4F2000200219042CDE94B
:103080000411CDE90211019124D044F20041C4F2AF
:103090000001884249D1002043F630010090C4F27B
:1030A00002010A6942F400320A610A6902F400323C
:1030B0000092009A0090086840F0010008600868DB
:1030C0000C2100F00100009000980020C4F20200E2
:1030D0001FE000BF43F630000091C4F20200026915
:1030E00042F480220261026902F480220092009A76
:1030F0000091016841F00201016000684FF44061F5
:1031000000F00200009000980020C4F2020000F5D8
:103110008060019102210291002103910321049119
:103120000721059101A9FFF75DFA06B080BD0000F7
:103130002DE9F04381B0044690F83E0020280DD1DF
:103140000E4600294FF0010000F0CC801746002AFF
:1031500000F0C88094F83C00012803D1022001B09F
:10316000BDE8F083012084F83C00002022211D46A8
:10317000206484F83E102063FFF70AFBA785E785EB
:10318000A1680746B1F5805F01D1206910B1B04652
:10319000002601E04FF00008002084F83C00E08D9C
:1031A000002800F09B8005F101090DE040684FF018
:1031B00000086FF35F2026F8020BE08D0138E085F0
:1031C000E08D002800F08A802068016889060DD40F
:1031D000B9F1000F18D04DB3FFF7DAFAC01BA842BF
:1031E00024D8206801688906F6D500BFB8F1000F21
:1031F000DCD0A168B1F5805F14D009B9216989B12B
:10320000406800F07F000EE001688906EED4016896
:1032100089065CBF01685FEA8161E7D401688906BD
:10322000F2D5E3E7406808F8010BC6E7206850E8EC
:10323000030F216820F4D07041E80302E2B1206856
:1032400050E8030F216820F4D07041E803029AB1DE
:10325000206850E8030F216820F4D07041E8030291
:1032600052B1206850E8030F216820F4D07041E883
:103270000302002ADAD100BF206850E8050F216858
:1032800020F0010041E80502DAB1206850E8050F9E
:10329000216820F0010041E8050292B1206850E861
:1032A000050F216820F0010041E805024AB12068BD
:1032B00050E8050F216820F0010041E80502002ACE
:1032C000DAD1202084F83D0084F83E00002084F804
:1032D0003C00032001B0BDE8F08300BF202084F84B
:1032E0003E00002001B0BDE8F08300002DE9F0436E
:1032F00081B0044690F83D0020280DD10F460029EA
:103300004FF0010000F0DD801646002A00F0D98061
:1033100094F83C00012803D1022001B0BDE8F083FD
:10332000012084F83C000020206421201D4684F800
:103330003D00FFF72DFAA684E684A1680646B1F5A4
:10334000805F03D12069002800F01081B846002773
:10335000002084F83C00E18C2068002900F0908077
:1033600005F101090DE000BFB8F1000F28D018F8F1
:10337000011B4160E18C0139E184E18C002900F0FE
:103380007F8001680906EFD4B9F1000F0AD0FDB1C2
:10339000FFF7FEF9801BA8421AD8206801680906C9
:1033A000F6D5E1E701680906DED4016809065CBFCD
:1033B00001685FEA0161D7D401680906F2D5D3E755
:1033C00037F8021B4FF000086FF35F21D1E700BF11
:1033D000206850E8030F216820F4D07041E8030210
:1033E000BAB3206850E8030F216820F4D07041E898
:1033F000030272B3206850E8030F216820F4D070F4
:1034000041E803022AB3206850E8030F216820F442
:10341000D07041E80302002ADAD11AE0206850E8AF
:10342000050F216820F0010041E80502DAB12068AB
:1034300050E8050F216820F0010041E8050292B133
:10344000206850E8050F216820F0010041E80502DE
:103450004AB1206850E8050F216820F0010041E8DA
:103460000502002ADAD1202084F83D0084F83E00CD
:10347000002084F83C00032001B0BDE8F08300BFC9
:103480000168490619D4FDB1691C0DD101684906CE
:1034900013D4016849065CBF01685FEA41610CD43E
:1034A00001684906F2D508E0FFF772F9801BA842CF
:1034B0000AD8206800684006F6D5202084F83D0030
:1034C000002001B0BDE8F083206850E8030F2168B8
:1034D00020F4D07041E80302E2B3206850E8030F03
:1034E000216820F4D07041E803029AB3206850E8C4
:1034F000030F216820F4D07041E8030252B3206822
:1035000050E8030F216820F4D07041E80302002A3C
:10351000DAD11FE0206850E8050F216820F0010093
:1035200041E80502002A9ED0206850E8050F216876
:1035300020F0010041E80502002A3FF494AF206822
:1035400050E8050F216820F0010041E80502002A3B
:103550003FF489AF206850E8050F216820F0010092
:1035600041E80502002AD5D17DE700BF4FF00008F1
:10357000EEE60000FEE7000080B540F2381043F2AE
:103580000001C2F20000C4F202010160FEF7E0FD9A
:10359000002808BF80BDBDE88040FEF71DBD0000CB
:1035A00070B586B0002543F6300005950095C4F24D
:1035B0000200016840F6004441F0800101600168AA
:1035C000C4F2020401F080010091009900950168A5
:1035D000002241F00101016001684FF4405601F002
:1035E0000101009100990095016841F0020101601C
:1035F000016801F00201009100990095016841F015
:103600000801016000684FF4405100F0080000908C
:1036100000982046FFF7B6F80120CDE9020501A980
:10362000204601960495FEF7DDFF06B070BD000050
:1036300080B540F2401044F20041C2F20000C4F2F2
:10364000000100234FF00C0C4FF4165280E80E00DE
:10365000C0E90333C0E905C3C361FFF7D7FC002805
:1036600008BF80BDBDE88040FEF7B6BC80B540F223
:10367000841044F60001C2F20000C4F200010023ED
:103680004FF00C0C4FF4E13280E80E00C0E9033338
:10369000C0E905C3C361FFF7B9FC002808BF80BDBE
:1036A000BDE88040FEF798BCFEE70000FEE70000A2
:1036B0007047000070470000FFF770B8B0B592B0D7
:1036C000002443F64000CDE90A44CDE908440594BE
:1036D000CDE90344CDE901440094C4F2020001683D
:1036E000022541F080510160006800F08050009098
:1036F000009847F200000094C4F20000016841F411
:10370000804101600068A82100F48040009000988A
:10371000012006904FF4803007904FF480000D9008
:1037200004200E90119006A80C95CDE90F15FFF717
:103730007FFA28B1EFF3108072B600BFFEE700BF3A
:103740000F20CDE901054FF4A05004904FF48050B4
:10375000059001A805210394FFF7C6F820B1EFF307
:10376000108072B6FEE700BF12B0B0BD4EF68850B2
:10377000CEF20000016841F4700101607047000062
:1037800010B504460068D4E902C22369016921F436
:10379000405111430161626943EA0C01E36911433D
:1037A000C268194349F20C639A431143C1604169ED
:1037B000A26921F4407141F20043114340F4806258
:1037C000C4F201039A42416102D1FFF7E7F901E037
:1037D000FFF7D0F9E16963681922B1F5004FA0FB4A
:1037E000020123D15A00DB0FFCF7AAFD48F21F515A
:1037F000C5F2EB11A0FB01235A094FF69C73C0F6EA
:10380000FF7303F1805302FB0300322303EBC0007C
:10381000A0FB01014FF4F87000EA111000EB021058
:10382000C1F3421108442168886010BD9A009B0FC3
:10383000FCF786FD48F21F51C5F2EB11A0FB0123F6
:103840005A094FF69C73C0F6FF7302FB0300322344
:1038500003EB0010A0FB0101F02000EA511000EB87
:103860000210C1F3431108442168886010BD0000B4
:10387000FEE70000FEF7A0FFFFF720FFFFF790FE36
:10388000FFF77AFEFFF7D4FEFFF7F0FE03A0FEF786
:103890007FFB00BFFDF76EFEFCE700BF424F4F54B9
:1038A000204C4F4144455220206973206F6E206E9A
:1038B0006F772043686F6F736520757220636F6D3B
:1038C0006D616E64200D0A005FEA400C08BF91F044
:1038D000000F4FEA8C234FEAC12243EA51514FEACD
:1038E0001C5018BF00F5F0404FEA300018BF41F0FF
:1038F00000415FEA6C5C00F02980BCF1FF3F08BF2B
:1039000040F080407047130C06BF12044FF0100CBB
:103910004FF0000C130E04BF12020CF1080C130F31
:1039200004BF12010CF1040C930F04BF92000CF1C0
:10393000020CD30F04BF52000CF1010C11464FF0E2
:103940000002A0F11F00A0EB0C00704711F0004F27
:1039500008BF704731F000413FF4D5AF0B0C06BFF4
:1039600009044FF0100C4FF0000C0B0E04BF0902BD
:103970000CF1080C0B0F04BF09010CF1040C8B0FA8
:1039800004BF89000CF1020CCB0F04BF49000CF1FD
:10399000010CCCF1200322FA03F341EA030102FAFD
:1039A0000CF2A0EB0C0000F10100704723F07F4700
:1039B00020F07F4C80EA030000F00040ACEB0703EE
:1039C00003F57C5303F1FF032DE9804909B44FEA65
:1039D000144324EA03484FEA154B25EA0B4E0FF235
:1039E000042606EB13273E7803FB0667C7F500079E
:1039F00007FB06F64FEAD64606F102064FEA5437B1
:103A000007FB066CCCF1005C4FEA1C472CEA074C24
:103A10000CFB06F507FB06F404EB15464FEA961679
:103A200049085FEA320234BF00204FF000404FEAFD
:103A3000D13706FB07FC4FEA1C4C0CFB0BF7D21BE3
:103A400003FB0CF761EB07010CFB0EF7B0EB074033
:103A500072EB17420CFB08F734BFA2EB0742B2EB44
:103A6000074261EB17414FEA0C444FEA910706FB0E
:103A700007FC4FEA1C4C0CFB0BF7B0EBC74072EB9A
:103A8000573203FB0CF734BFA2EBC742B2EBC7427D
:103A900061EB57310CFB0EF7B0EBC70072EB5772BE
:103AA0000CFB08F734BFA2EBC702B2EBC70261EB15
:103AB00057714FEA816141EA92114FEA826242EA0C
:103AC00090124FEA806004EBCC04039F4FEAD13799
:103AD00006FB07FC4FEA1C4C0CFB0BF7D21B03FB4D
:103AE0000CF761EB07010CFB0EF7B0EB074072EB34
:103AF00017420CFB08F734BFA2EB0742B2EB0742B8
:103B000061EB17414FEA8C5504EB9C244FEA910777
:103B100006FB07FC4FEA1C4C0CFB0BF7B0EBC74055
:103B200072EB573203FB0CF734BFA2EBC742B2EB88
:103B3000C74261EB57310CFB0EF7B0EBC70072EBDD
:103B400057720CFB08F734BFA2EBC702B2EBC702F7
:103B500061EB57714FEA816141EA92114FEA82624B
:103B600042EA90124FEA806015EB4C2544F10004C4
:103B70004FEAD13706FB07FC4FEA1C4C0CFB0BF756
:103B8000D21B03FB0CF761EB07010CFB0EF7B0EB4C
:103B9000074072EB17420CFB08F734BFA2EB074259
:103BA000B2EB074261EB17414FEA813141EA9241A2
:103BB0004FEA823242EA90424FEA80304FEA0C7676
:103BC00015EB1C1544F1000448EA03434EEA0B4888
:103BD0004FF0000EB2EB080C71EB030724BF6246F6
:103BE00039464EEB0E0E4FF0000B00185241494182
:103BF0004BEB0B0BB2EB080C71EB03077BF1000BEB
:103C000024BF624639464EEB0E0E4FF0000B0018F3
:103C1000524149414BEB0B0BB2EB080C71EB030724
:103C20007BF1000B24BF624639464EEB0E0E51EA83
:103C3000020718BF46F0010616EB0E7655F100029A
:103C400054F1000103D5BDE88901BDE80088BDE855
:103C50008901BDE80048B619524141EB0101A3F1C9
:103C60000103704780807F7E7D7C7B7A79787776D0
:103C700076757473727171706F6E6E6D6C6C6B6A49
:103C80006A696868676666656464636362616160E7
:103C9000605F5F5E5E5D5D5C5C5B5B5A5A59595864
:103CA00058575756565555555454535352525251CE
:103CB000515050504F4F4F4E4E4D4D4D4C4C4C4B24
:103CC0004B4B4A4A4A49494948484847474747466B
:103CD00046464545454444444443434343424242A7
:103CE000424141419C46002B30D477002BD04FEA13
:103CF00037071CB503B44FF010004FF01001BAF1B4
:103D0000000F06D0BCF1000FDCBF40F0080040F00F
:103D100008014FF000000FBCBDE810400BF1010B93
:103D2000BBF1010F08BF5FEA170722BF12F10102C2
:103D300011F101014FF0004143F1000300F0004098
:103D400043EA00007047F9D35708D0E746EA064631
:103D50004FEA164613F1400F1FDD13F1200FDFBFAE
:103D600016430A46002120335B42BED0C3F1200730
:103D700046EA06464FEA164602FA07F746EA0706FB
:103D800022FA03F2C3F1200701FA07F742EA070219
:103D900021FA03F14FF00003A7E746EA020646EADC
:103DA00006464FEA164646EA0106BCBF46EA064604
:103DB000360C4FF000034FF000024FF0000194E783
:103DC0002DE9804C70B49A46934691E8380007C8B4
:103DD00031EA400C48BF34EA430C03D5FFF7E6FD57
:103DE000FFF780FFF0BCBDE8008C2DE9804C70B47B
:103DF0009A46934691E8380007C810F0804F08BFF4
:103E000013F0804F03D100F005F8FFF76BFFF0BC13
:103E1000BDE8008C20F07F4723F07F4C80EA030050
:103E200000F0004007EB0C03A3F57C53A3F1FE0365
:103E300092F0000F00F0B38095F0000F00F0778053
:103E40002DE901494FEA114021EA00484FEA1446A2
:103E500024EA064700FB06FC08FB06F607FB08F809
:103E600018EB06484CEB164C00FB07F718EB07481D
:103E70004CEB17404FEA124B22EA0B4E4FEA154625
:103E800025EA06470BFB06FC0EFB06F607FB0EFEBB
:103E90001EEB064E4CEB164C0BFB07F71EEB074ECA
:103EA0004CEB174B18EB0B0840F1000018EB0E0B16
:103EB00058EB000840F100008F1A4FF000014FF05E
:103EC00000063CBFC943661B14BFB5EB040C0021C0
:103ED0003CBFC943F61B4FEA174427EA04454FEAA3
:103EE0001C472CEA074C04FB076205FB07F70CFB99
:103EF00005F616EB074642EB174204FB0CFC16EBEB
:103F00000C4642EB1C421BEB060658EB02024141F9
:103F10004EEA8E0E46EA9E0601D5BDE80189B61925
:103F2000524141EB0101A3F10103BDE801894FEAD0
:103F3000144524EA05464FEA114721EA074C05FBE0
:103F400007F406FB07F70CFB06F111EB074144EB06
:103F5000174405FB0CFC11EB0C4144EB1C444FEAED
:103F6000124722EA074C05FB07F206FB07F70CFB9A
:103F700006F616EB074642EB174205FB0CFC16EB68
:103F80000C4642EB1C456A1854F1000148BF7047CB
:103F9000B619524141EB0101A3F10103704795F0BD
:103FA000000F37D04FEA114221EA02464FEA144788
:103FB00024EA074C02FB07F106FB07F70CFB06F4AB
:103FC00014EB074441EB174102FB0CFC14EB0C44CF
:103FD00041EB1C414FEA154725EA074C02FB07F568
:103FE00006FB07F70CFB06F616EB074645EB1745F5
:103FF00002FB0CFC16EB0C4645EB1C42121951F16E
:10400000000148BF7047B619524141EB0101A3F1CD
:10401000010370474FEA144524EA05464FEA114769
:1040200021EA074C05FB07F106FB07F70CFB06F23C
:1040300012EB074241EB174105FB0CFC12EB0C4263
:1040400051EB1C414FF0000648BF7047921841EBFE
:104050000101A3F10103704703B4019841000098E6
:1040600050EAC12018BF04204A0D18BF40F00100DB
:1040700040F2FF72B2EB515F08BF40F0020001282E
:1040800008BF052002B0704730380A2801D201204D
:10409000704700207047000010B500290AD008784A
:1040A000002807D005487844FDF71EFA002801D003
:1040B000002010BD0248784410BD000042060000F8
:1040C0003A06000010B500290AD00878002807D069
:1040D00005487844FDF708FA002801D0002010BDFB
:1040E0000248784410BD0000320600002A06000095
:1040F000F1EE100A4FF6FF71C0F2C03120EA010064
:1041000040F04070E1EE100A7047FCF7F5BDFCF797
:1041100029BF0000000000000000000030313233F1
:1041200034353637383941424344454640305800EB
:10413000303132333435363738396162636465661D
:104140004030780004000008000000000000000279
:1041500000010000103031323334353637383961E0
:1041600062636465667870003031323334353637D7
:10417000383941424344454658500000024000004F
:10418000000000A00000000005400000000000C882
:10419000000000000C4000000000409C00000000F7
:1041A000194000000020BCBE0000000034400000A8
:1041B000BFC91B8E00000004B5400000504BCFD09B
:1041C0006607E2CF010000006C4100003E8251AA68
:1041D000DFEEA73401000000D9420000DCB5A0E208
:1041E0003A301F97FFFFFFFFB4450000FD25A0C830
:1041F000E9A3C14FFFFFFFFFFF3F00000000008069
:1042000000000000FF3F00000000008000000000F0
:10421000010000000100000000000000000000009C
:104220000200000000000000000000000102030482
:10423000060708090000000001020304426F6F74C2
:104240006C6F616465722045726173655F466C6175
:104250007368204465636C696E656420200D0A00F4
:10426000426F6F746C6F6164657220457261736533
:104270005F466C6173682061636365707465642078
:10428000737065636566696320616C6C20200D0A3C
:1042900000426F6F746C6F61646572204572617368
:1042A000655F466C61736820616C6C20200D0A00AC
:1042B000426F6F746C6F6164657220200D0A00207C
:1042C00043424C5F4D454D5F524541445F434D4431
:1042D000200D0A002043424C5F4F54505F5245412D
:1042E000445F434D44200D0A002043424C5F474544
:1042F000545F4349445F434D44200D0A002043422C
:104300004C5F464C4153485F45524153455F434DD6
:1043100044200D0A002043424C5F4D454D5F5752EB
:104320004954455F434D44200D0A002043424C5FF1
:104330004745545F48454C505F434D44200D0A00AB
:104340002043424C5F474F5F544F5F414444525FAC
:10435000434D44200D0A002043424C5F4745545FC3
:104360005645525F434D44200D0A002043424C5FA6
:104370004745545F5244505F5354415455535F4333
:104380004D44200D0A002043424C5F524541445F9A
:10439000534543544F525F5354415455535F434D1B
:1043A00044200D0A002043424C5F45445F575F5054
:1043B000524F544543545F434D44200D0A00426F11
:1043C0006F746C6F616465725F526561645F507297
:1043D0006F74656374696F6E5F4C6576656C20669B
:1043E000726F6D20746865204D4355200D0A005290
:1043F0006561642074686520626F6F746C6F6164BE
:1044000065722076657273696F6E2066726F6D20BB
:10441000746865204D4355200D0A00426F6F746C1F
:104420006F616465725F4A756D705F546F5F416460
:10443000647265737320696E20746865204D4355FE
:10444000200D0A00506173736564202D3E20507268
:104450006F6772616D20524F5020746F204C6576EB
:10446000656C203A2030782558200D0A00426F6F85
:10447000746C6F616465722045726173655F466C30
:104480006173682025642045726173655F73746190
:1044900074757365203D202564200D0A00426F6FFE
:1044A000746C6F61646572205665722E2025642ECF
:1044B00025642E2564200D0A00426F6F746C6F61B5
:1044C0006465722050726F74656374696F6E5F4CBF
:1044D0006576656C206973203D2564200D0A0043D4
:1044E000524320566572696669636174696F6E2014
:1044F0004661696C6564200D0A00416472657373DE
:1045000020566572696669636174696F6E204661E1
:10451000696C6564200D0A0046696E616C205772F3
:1045200069746E6720686173206265656E206572CC
:10453000726F726564200D0A004352432056657203
:10454000696669636174696F6E2050617373656435
:10455000200D0A004572726F722063686F6F736975
:104560006E6720436F6D6D616E64200D0A00426FAF
:104570006F746C6F616465725F4D656D6F72795FAA
:104580005772697465200D0A00426F6F746C6F6119
:10459000646572204661696C656420746F2063688D
:1045A000616E67652070726F74656374696F6E20E9
:1045B0000D0A00426F6F746C6F61646572205375F1
:1045C00063637365737320746F206368616E6765DE
:1045D0002070726F74656374696F6E200D0A0050ED
:1045E0006173736564202D3E2050726F6772616D38
:1045F000206F7074696F6E206279746573200D0A84
:1046000000506173736564202D3E20556E6C6F639E
:104610006B2074686520464C415348204F70746984
:104620006F6E20436F6E74726F6C20526567697392
:104630007465727320616363657373200D0A0046AD
:104640004C41534820556E6C6F636B205375636308
:10465000657373200D0A0046696E616C205772699C
:10466000746E6720686173206265656E20537563A0
:1046700063657373200D0A0041647265737320567D
:104680006572696669636174696F6E2053756373DF
:10469000657373200D0A004164726573732069733A
:1046A00020436F7272656374200D0A004164726565
:1046B0007373206973206E6F7420436F7272656329
:1046C00074200D0A000000001848000800000020B7
:1046D00010000000EC01000828480008100000202D
:1046E000E00700000C0200081C000000430000006E
:1046F000F8FFFFFF0C0000000E0000000F0000009C
:104700002E0000001001000043000000F8FFFFFF32
:1047100000404040404040404040414141414140D4
:104720004040404040404040404040404040404089
:104730004005020202020202020202020202020218
:10474000022020202020202020202002020202021D
:104750000202909090909090101010101010101075
:104760001010101010101010101010100202020281
:1047700002028888888888880808080808080808C5
:1047800008080808080808080808080802020202C1
:1047900040000000000000000000000000000000D9
:1047A0000000000000000000000000000000000009
:1047B00000000000000000000000000000000000F9
:1047C00000000000000000000000000000000000E9
:1047D00000000000000000000000000000000000D9
:1047E00000000000000000000000000000000000C9
:1047F00000000000000000000000000000000000B9
:1048000000000000000000000000000000000000A8
:104810000000000000000000010000001000000087
:084820000024F4000000000078
:040000050800018965
:00000001FF
