:020000040800F2
:10800000B8060020558200084192000855910008EA
:10801000FD91000801840008119400080000000090
:10802000000000000000000000000000499200086D
:108030000584000800000000459200084D920008E9
:108040006F8200086F8200086F8200086F8200084C
:108050006F8200086F820008098400086F820008A0
:108060006F8200086F8200086F8200086F8200082C
:108070006F8200086F8200086F8200086F8200081C
:108080006F8200086F8200086F8200086F8200080C
:108090006F8200086F8200086F8200086F820008FC
:1080A0006F8200086F8200086F8200086F820008EC
:1080B0006F8200086F8200086F8200086F820008DC
:1080C0006F8200086F8200086F8200086F820008CC
:1080D0006F8200086F8200086F8200086F820008BC
:1080E0006F8200086F8200086F8200086F820008AC
:1080F0006F8200086F8200086F8200086F8200089C
:108100006F8200086F8200086F8200086F8200088B
:108110006F8200086F8200086F8200086F8200087B
:108120006F8200086F8200086F8200086F8200086B
:108130006F8200086F8200086F8200086F8200085B
:108140006F8200086F8200086F8200086F8200084B
:108150006F8200086F8200086F8200086F8200083B
:108160006F8200086F8200086F8200086F8200082B
:108170006F8200086F8200086F8200080000000014
:108180006F8200086F82000800F002F800F052F8D9
:1081900014A696E8000CB244B344DA4501D100F0CD
:1081A00049F8BAE80F000FA696E83000A5EB0405E1
:1081B00004EB0607AAEB0704A7F101074FEA151520
:1081C0004FEA3414A4F10104AC4201D300F032F8B8
:1081D00013F0010F18BFFB1A43F0010300F001F880
:1081E000DBE71847E812000008130000103A24BF2C
:1081F00078C878C1FAD8520724BF30C830C144BF0C
:1082000004680C60704700007047000000230024E1
:1082100000250026103A28BF78C1FBD8520728BF96
:1082200030C148BF0B6070471FB501F035F91FBD65
:1082300010B510BD00F0A9F81146FFF7F5FF01F0E9
:10824000E9F800F0C7F803B4FFF7F2FF03BC00F051
:10825000CFF800000948804709480047FEE7FEE7DD
:10826000FEE7FEE7FEE7FEE7FEE7FEE7FEE7FEE7E6
:1082700004480549054A064B704700000193000871
:1082800089810008B8000020B8060020B80200204C
:10829000B802002053EA020C00F069802DE9F04B8F
:1082A0004FF00006002B1FBFB3FA83F503FA05F465
:1082B00024FA05F65E4012BF1643B2FA82F502FABE
:1082C00005F4C5F120051EBF22FA05FC44EA0C04A2
:1082D000203556EA044C4FEA144418BF641C4FF092
:1082E00000084FF00009904271EB030C39D30029CC
:1082F00019BFB1FA81F701FA07F6B0FA80F700FA70
:1083000007F6C7F120071EBF20FA07FC46EA0C0655
:108310002037B6FBF4FCA7EB0507103F07F01F0B57
:10832000CBF120062CFA06F60CFA0BFB44BFB34641
:108330000026202FA4BF5E464FF0000B5BEA060C20
:1083400008BF4FF0010B19EB0B0948EB0608ABFB1C
:10835000027C06FB02CC0BFB03CCC01B71EB0C01B7
:10836000C1E70B46024641464846BDE8F08B13B5CF
:10837000084318BF4FF0FF300146AFF30080BDE85F
:108380001C407047704770477047754600F02CF8E6
:10839000AE4605006946534620F00700854618B0F2
:1083A00020B5FFF765FFBDE820404FF000064FF015
:1083B00000074FF000084FF0000BAC46ACE8C009D6
:1083C000ACE8C009ACE8C009ACE8C00921F007017D
:1083D0008D46704710B50446AFF300802046BDE8D7
:1083E0001040FFF730BF0000004870471000002029
:1083F00001491820ABBEFEE72600020070470000CE
:10840000FEE700007047000070B58EB0154801907F
:1084100014A000F1040E9EE80E50049300F1240312
:1084200000F11806029103920ECB006B70CECDF8CE
:1084300014C00DF1280C8CE80E0007A90D90012046
:10844000CDF818E070C100F043F840F27000C2F2BD
:10845000000001A932224FF0FF3300F037FD0EB0CB
:1084600070BD00BF546869732074686520696E74BC
:1084700065727275707420696E206170702072650B
:108480006C6174656420627920626F6F746C6F61D7
:108490006465720D0A000000EFF3108072B600BF31
:1084A000FEE70000B0B5044600F0EEF8054640F2E5
:1084B0000000C2F200000078611C18BF044400BF35
:1084C00000F0E2F8401BA042FAD3B0BD70470000B4
:1084D00043F61441C4F201010A68024214BF086065
:1084E0007047FFF7F3BF00002DE9F04F82B000F1B5
:1084F0003E4707F1FF77860546EA972741F6004693
:10850000C4F20206082243F6004EB04208BF07221A
:10851000C4F2010E072F38BF3A46002600274FF05D
:108520000008009209E000BF08F101080237B8F125
:10853000100F06F1040600F0A3800D68012202FA74
:1085400008F415EA0409EFD0D1F804B003220BF0C7
:10855000030CACF10105BA40012D6FEA020A0FD8F5
:108560008268CD6802EA0A02BD402A4382604268FE
:10857000A243CBF3001404FA08F42243426005E05E
:10858000BCF1030F02D14FF0030C1EE0C2688C68EF
:1085900002EA0A02BC402243BCF1020FC26014D1BD
:1085A0006FF0030202EA58020244D2F820C006F03B
:1085B0001C040F230D69A3402CEA0303A5402B43A1
:1085C0001362D1F804B00BF0030C02680CFA07F345
:1085D00002EA0A021A431BF4403F0260A4D00022C0
:1085E00043F644030192C4F202031A684FF6084CA2
:1085F00042F480421A601A68CFF6FF7C02F480428F
:108600000192019A28F00302724452F80C3006F0ED
:108610000C050F24AC40A343009C04FA05F52B4342
:1086200042F80C30DEF808204B6842EA090543F6B0
:108630000C4CDC0258BF22EA0905CEF80850C4F2FF
:10864000010CDCF800209C0242EA090558BF22EA2E
:108650000905CCF80050DEF804209C0342EA090525
:1086600058BF22EA0905CEF80450DEF80020DB03EB
:1086700042EA090558BF22EA0905CEF8005053E73F
:1086800002B0BDE8F08F000040F2B400C2F200007A
:108690000068704740F2000040F2B401C2F20000EE
:1086A000C2F2000100780A681044086070470000B8
:1086B00080B543F60040C4F20200016841F4007145
:1086C0000160016841F480610160016841F48071DA
:1086D0000160032000F086F80F2000F005F800F09C
:1086E00027F8002080BD000070B540F20006C2F2FD
:1086F000000640F208013278C2F200014FF47A73AA
:108700000968B3FBF2F20446B1FBF2F1084600F04F
:1087100061FB0F2C4FF0010508D838B94FF0FF303E
:1087200021460022002500F031F87460284670BD13
:1087300082B0002043F640010190C4F202014A6871
:1087400042F480424A604A6802F480420192019AEF
:108750000090086840F080500860086800F0805081
:108760000090009802B07047002848BF704700F0A2
:108770001F01012202FA01F11C2202EAD0004EF28E
:108780000012CEF2000281507047000010B54EF684
:108790000C5CCEF2000CDCF80030C3F3022E8EF03D
:1087A0000704042C28BF0424BEF103034FF0FF3E4E
:1087B0000EFA04F438BF0023A14399400EFA03F3E4
:1087C0009A43114300F00F0200F160430901043A9B
:1087D00003F564436244002848BF02F10C0319709A
:1087E00010BD00004EF60C51CEF200010A684FF6A3
:1087F000FF031A4060F30A2242F0806040F0FD70EF
:1088000008607047002804BF012070472DE9F0413F
:1088100043F60808C4F202080446D8F8F8030D46E7
:1088200000F00700884207D288F8F853D8F8F80318
:1088300000F00700A84277D12068810717D54107CB
:1088400005D5D8F8001041F4E051C8F80010010730
:1088500005D5D8F8001041F46041C8F80010D8F8E8
:108860000010A26821F0F0011143C8F80010C00701
:1088700040D1D8F8F80300F00700A84207D988F8DB
:10888000F853D8F8F80300F00700A8424CD120684C
:10889000410707D5D8F80010E26821F4E0511143F0
:1088A000C8F80010000708D5D8F80000216920F4A6
:1088B000604040EAC100C8F8000000F07DF8D8F838
:1088C000001049F2B242C1F30311C0F60002515C3C
:1088D00040F2080220FA01F140F20400C2F2000066
:1088E0000068C2F200021160FFF7FEFE0020BDE842
:1088F000F08100BF6068811E022907D258F8081C69
:1089000089015CBF0120BDE8F08111E0012807D199
:1089100058F8081C89035CBF0120BDE8F08107E01E
:1089200058F8081C890703D40120BDE8F08100BF76
:10893000D8F8001021F003010843C8F80000FFF741
:10894000A3FE064641F28837D8F80000616800F0BF
:108950000C00B0EB810F8CD0FFF796FE801BB84265
:10896000F2D90320BDE8F08140F2080043F6080187
:10897000C2F20000C4F202010068096849F2C24272
:10898000C1F38221C0F60002515CC840704700006C
:1089900040F2080043F60801C2F20000C4F20201EE
:1089A0000068096849F2C242C1F34231C0F60002D0
:1089B000515CC8407047000010B543F60404C4F28F
:1089C0000204606800F00C0142F200400829C0F285
:1089D000F40007D0042918BF10BD41F20020C0F2F6
:1089E0007A0010BD216801F03F0221682368490226
:1089F000C3F3881106D4A1FB00010023FFF74AFC52
:108A000007E000BF41F20020C0F27A004843B0FB0B
:108A1000F2F021680222C1F3014102EB4101B0FBF7
:108A2000F1F010BD002804BF012070472DE9F0418E
:108A300082B00446007843F60006C007C4F202067E
:108A40000CD0B06800F00C00042840F08180306841
:108A5000800303D56068002800F06A8120788007D1
:108A60001BD5B06810F00C0F09D0B06800F00C00F6
:108A7000082840F087807068400200F183803068E9
:108A8000800703D5E068012840F0528130682169F1
:108A900020F0F80040EAC10030602078000713D4CD
:108AA000207840072AD4A569002D00F03C81B068E9
:108AB00000F00C00082840F0A180012D40F010814A
:108AC000012002B0BDE8F0816069002840F200009A
:108AD000C4F2472000F07E800121C0F8801EFFF71D
:108AE000D3FD0546706F8007DAD4FFF7CDFD401B3C
:108AF0000228F7D9032002B0BDE8F081306C5FEAAC
:108B0000C0080AD400200190306C40F080503064DE
:108B1000306C00F080500190019847F20007C4F2D9
:108B200000073868C00547D4386840F48070386062
:108B3000FFF7AAFD054600BF3868C0053CD4FFF723
:108B4000A3FD401B0228F7D9032002B0BDE8F08145
:108B5000B06800F00C00082803D1706840023FF5AF
:108B600076AF6068B0F5803F07D0B0F5A02F40F039
:108B70009B80306840F480203060306840F4803062
:108B800030609BE0E06800285CD00020C4F2472001
:108B900001210160FFF778FD054600BF30688007BE
:108BA0003FF574AFFFF770FD401B0228F6D9032094
:108BB00002B0BDE8F08100BFA068012805D00528FB
:108BC00054D1306F40F004003067306F40F0010046
:108BD000306755E00021C0F8801EFFF755FD0546BF
:108BE000706F80077FF55CAFFFF74EFD401B0228DA
:108BF000F6D9032002B0BDE8F08100BF0027C4F21F
:108C0000472700203866FFF73FFD022D05460DD1AE
:108C10003068800140F19080FFF736FD401B02284C
:108C20004FF00300F4D902B0BDE8F0813068800154
:108C300079D5FFF729FD401B02284FF00300F5D935
:108C4000F1E700BF0020C4F2472000210160FFF7D8
:108C50001BFD0546306880077FF51FAFFFF714FD49
:108C6000401B02284FF00300F4D9DCE7316F0028E5
:108C700021F001013167316F21F0040131677DD0AE
:108C8000FFF702FD054641F2883700BF306F8007CD
:108C900000F18680FFF7F8FC401BB842F6D90320AC
:108CA00002B0BDE8F08100BF3168002821F48031B6
:108CB0003160316821F4802131607BD0FFF7E4FC22
:108CC000054600BF306880033FF5C8AEFFF7DCFC07
:108CD000401B6428F6D9032002B0BDE8F08100BF34
:108CE0007068E16900F480028A4221D1216A00F0B3
:108CF0003F028A421CD147F6C071626A0140B1EB63
:108D0000821F15D1A16A4FF6FF73C903994300F47E
:108D10004032A1F580318A420AD1E16A00F07060E8
:108D2000B0EB016F04D1002002B0BDE8F08100BFBC
:108D3000012002B0BDE8F08104F11C052FCD0843ED
:108D400040EA8210D9034FF6FF729143A1F58031BA
:108D500040EA05600843706001203866FFF794FC24
:108D6000044600BF30688001DDD4FFF78DFC001B96
:108D700002284FF00300F5D955E700BFFFF784FC48
:108D8000054641F2883700BF306F800708D5FFF7EE
:108D90007BFC401BB8424FF00300F5D943E700BF0E
:108DA000B8F1000F3FF57FAE306C20F0805030649A
:108DB00079E600BFFFF768FC054600BF3068800316
:108DC0007FF54CAEFFF760FC401B64284FF00300BA
:108DD000F4D928E7411E0020B0EB116F1CBF012021
:108DE00070474EF21002CEF2000251604EF623514F
:108DF000CEF20001F0230B700721906011607047E4
:108E0000002804BF0120704710B5044690F83D00CB
:108E100028B9002084F83C00204600F021F82420E6
:108E200084F83D002068C16821F40051C1602046EB
:108E300000F076FA2068016921F4904101614169EE
:108E400021F02A014161C16841F40051C160002054
:108E50002021206484F83D1084F83E1010BD0000ED
:108E6000016844F20040C4F20000814218BF70471C
:108E700080B586B0002143F630020191C4F20202AF
:108E8000136900F5DE3043F400331361136903F412
:108E900000330193019B0191136843F001031360B8
:108EA000126802F001020192019A0C220192022240
:108EB000CDE90221032104910721059101A9FFF7C2
:108EC00013FB06B0BDE88040704700002DE9F04379
:108ED00081B0044690F83D0020280DD10F460029AE
:108EE0004FF0010000F0DD801646002A00F0D98026
:108EF00094F83C00012803D1022001B0BDE8F083C2
:108F0000012084F83C000020206421201D4684F8C4
:108F10003D00FFF7B9FBA684E684A1680646B1F5DB
:108F2000805F03D12069002800F01081B846002737
:108F3000002084F83C00E18C2068002900F090803B
:108F400005F101090DE000BFB8F1000F28D018F8B5
:108F5000011B4160E18C0139E184E18C002900F0C2
:108F60007F8001680906EFD4B9F1000F0AD0FDB186
:108F7000FFF78AFB801BA8421AD8206801680906FF
:108F8000F6D5E1E701680906DED4016809065CBF91
:108F900001685FEA0161D7D401680906F2D5D3E719
:108FA00037F8021B4FF000086FF35F21D1E700BFD5
:108FB000206850E8030F216820F4D07041E80302D4
:108FC000BAB3206850E8030F216820F4D07041E85C
:108FD000030272B3206850E8030F216820F4D070B8
:108FE00041E803022AB3206850E8030F216820F407
:108FF000D07041E80302002ADAD11AE0206850E874
:10900000050F216820F0010041E80502DAB120686F
:1090100050E8050F216820F0010041E8050292B1F7
:10902000206850E8050F216820F0010041E80502A2
:109030004AB1206850E8050F216820F0010041E89E
:109040000502002ADAD1202084F83D0084F83E0091
:10905000002084F83C00032001B0BDE8F08300BF8D
:109060000168490619D4FDB1691C0DD10168490692
:1090700013D4016849065CBF01685FEA41610CD402
:1090800001684906F2D508E0FFF7FEFA801BA84206
:109090000AD8206800684006F6D5202084F83D00F4
:1090A000002001B0BDE8F083206850E8030F21687C
:1090B00020F4D07041E80302E2B3206850E8030FC7
:1090C000216820F4D07041E803029AB3206850E888
:1090D000030F216820F4D07041E8030252B32068E6
:1090E00050E8030F216820F4D07041E80302002A01
:1090F000DAD11FE0206850E8050F216820F0010058
:1091000041E80502002A9ED0206850E8050F21683A
:1091100020F0010041E80502002A3FF494AF2068E6
:1091200050E8050F216820F0010041E80502002AFF
:109130003FF489AF206850E8050F216820F0010056
:1091400041E80502002AD5D17DE700BF4FF00008B5
:10915000EEE60000FEE7000080B586B0002043F692
:109160003001CDE904000090C4F202010A6842F027
:1091700080020A600A6802F080020092009A009061
:109180000A6842F001020A60096801F001010091D9
:109190000099012101914FF48811CDE902100020BE
:1091A000C4F2020001A9FFF79FF906200021002266
:1091B000FFF7ECFA0620FFF7D7FA06B080BD0000F3
:1091C00080B540F2700044F20041C2F20000C4F2E7
:1091D000000100234FF00C0C4FF4E13280E80E0048
:1091E000C0E90333C0E905C3C361FFF709FE0028E6
:1091F00008BF80BDBDE88040FFF74EB986B00B4880
:109200000DF1080C019009A0031D00690ECB05901B
:1092100040F270008CE80E00C2F2000001A9132297
:109220004FF0FF33FFF752FEFEE700BF696D206984
:109230006E206D656D206D616E6167650D0A0000C1
:10924000FEE700007047000070470000FFF722BAF9
:10925000B0B592B0002443F64000CDE90A44CDE910
:1092600008440594CDE90344CDE901440094C4F2D7
:1092700002000168022541F080510160006800F0A1
:1092800080500090009847F200000094C4F2000063
:10929000016841F4804101600068A82100F4804029
:1092A00000900098012006904FF4803007904FF412
:1092B00080000D9004200E90119006A80C95CDE929
:1092C0000F15FFF7AFFB28B1EFF3108072B600BFA8
:1092D000FEE700BF0F20CDE901054FF4A050049038
:1092E0004FF48050059001A805210394FFF78AFAF6
:1092F00020B1EFF3108072B6FEE700BF12B0B0BD30
:109300004EF68850CEF20000016841F47001016011
:1093100048F20001C0F6000140F8801C70470000D0
:1093200010B504460068D4E902C22369016921F43A
:10933000405111430161626943EA0C01E369114341
:10934000C268194349F20C639A431143C1604169F1
:10935000A26921F4407141F20043114340F480625C
:10936000C4F201039A42416102D1FFF711FB01E00F
:10937000FFF7FAFAE16963681922B1F5004FA0FB23
:10938000020123D15A00DB0FFEF784FF48F21F5180
:10939000C5F2EB11A0FB01235A094FF69C73C0F6EE
:1093A000FF7303F1805302FB0300322303EBC00081
:1093B000A0FB01014FF4F87000EA111000EB02105D
:1093C000C1F3421108442168886010BD9A009B0FC8
:1093D000FEF760FF48F21F51C5F2EB11A0FB01231D
:1093E0005A094FF69C73C0F6FF7302FB0300322349
:1093F00003EB0010A0FB0101F02000EA511000EB8C
:109400000210C1F3431108442168886010BD0000B8
:10941000FEE700008AB0FFF74BF9FFF719FFFFF7EF
:109420009BFEFFF7CDFE1248009011A0051D2ECD2A
:1094300000F1140E9EE81050019105A9066A81E81A
:109440001050406A40F270040495C2F200046D4668
:1094500002920393CDE908602046294628224FF066
:10946000FF33FFF733FD4FF4FA70FFF71BF8F3E714
:109470004869207468697320746865206170702081
:1094800072656C6174656420746F20626F6F746CB8
:109490006F616465720D0A00F1EE100A4FF6FF71FC
:1094A000C0F2C03120EA010040F04070E1EE100A45
:1094B00070470000000000000000010203040607DE
:1094C000080900000000010203040000F0940008F5
:1094D0000000002010000000EC810008009500084A
:1094E00010000020A80600000C8200080000000008
:1094F00001000000100000000024F4000000000043
:0400000508008189E5
:00000001FF
